:020000040800F2
:10000000E80400209D010008511400089511000823
:100010004D140008A9020008AD1D000800000000F2
:100020000000000000000000000000003D18000873
:10003000AD020008000000008D1400083F18000801
:10004000B7010008B7010008B7010008B7010008B0
:10005000B7010008B7010008B7010008B7010008A0
:10006000B7010008B7010008B7010008B701000890
:10007000B7010008B7010008B7010008B701000880
:10008000B7010008B7010008B7010008B701000870
:10009000B7010008B7010008B7010008B701000860
:1000A000B7010008B7010008B7010008B701000850
:1000B000B7010008B7010008B7010008B701000840
:1000C000B7010008B7010008B7010008B701000830
:1000D000B7010008B7010008B7010008B701000820
:1000E000B7010008B7010008B7010008B701000810
:1000F000B7010008B7010008B7010008B701000800
:10010000B7010008B7010008B7010008B7010008EF
:10011000B7010008B7010008B7010008B7010008DF
:10012000B7010008B7010008B7010008B7010008CF
:10013000B7010008B7010008B7010008B7010008BF
:10014000B7010008B7010008B7010008B7010008AF
:10015000B7010008B7010008B7010008B70100089F
:10016000B7010008B7010008B7010008B70100088F
:10017000B7010008B7010008B7010008000000003F
:10018000B7010008B7010008DFF80CD000F07AF8DA
:10019000004800471D1E0008E8040020064880476C
:1001A00006480047FEE7FEE7FEE7FEE7FEE7FEE75C
:1001B000FEE7FEE7FEE7FEE7FD18000889010008FC
:1001C0002DE9F05F0546002092469B46884606468C
:1001D000814640241BE0284641464746224600F01F
:1001E00041F853465A46C01A914110D31146184659
:1001F000224600F028F82D1A67EB01084F462246E8
:100200000120002100F01FF817EB00094E41201ECD
:10021000A4F10104DFDC484631462A464346BDE8E6
:10022000F09FD2B201E000F8012B491EFBD27047CB
:100230000022F6E710B513460A4604461946FFF7B2
:10024000F0FF204610BD202A04DB203A00FA02F11C
:10025000002070479140C2F1200320FA03F31943B4
:1002600090407047202A04DB203A21FA02F0002156
:10027000704721FA02F3D040C2F1200291400843B6
:1002800019467047064C074D06E0E06840F0010350
:1002900094E8070098471034AC42F6D3FFF778FF94
:1002A000A81E0008C81E000800BFFEE77047704780
:1002B00070B5044600F016F906462546681C10B1D4
:1002C00004480078054400BF00F00CF9801BA842E8
:1002D000FAD370BD08000020F8B502460B46002591
:1002E000002400200021DCE0012606FA01F51E684A
:1002F00006EA0504AC4273D15E68022E02D05E6845
:10030000122E13D1CF0802F1200656F827004E070F
:10031000F70E0F26BE40B0434F07FF0E1E69BE40CA
:100320003043CF0802F1200646F8270010684F003E
:100330000326BE40B0431E7906F003064F00BE40C0
:10034000304310605E68012E08D05E68022E05D032
:100350005E68112E02D05E68122E13D190684F0095
:100360000326BE40B0434F00DE68BE40304390607D
:10037000506801268E40B0431E79C6F300168E40A9
:1003800030435060D0684F000326BE40B0434F005A
:100390009E68BE403043D0605E6806F08056B6F17D
:1003A000805F7DD100BF00260096404E366846F43F
:1003B00080463E4F3E603E46366806F480460096D4
:1003C00000BF00BF3A4E8F0856F827008E07370F40
:1003D0000F26BE40B043374EB24202D1002624E081
:1003E0005EE0354EB24201D101261EE0334EB242EC
:1003F00001D1022619E0324EB24201D1032614E0A7
:10040000304EB24201D104260FE02F4EB24201D14C
:1004100005260AE02D4EB24201D1062605E02C4EFB
:10042000B24201D1072600E008268F073F0FBE40E9
:1004300030431F4E8F0846F82700264E3068A043F1
:100440005E6806F48036B6F5803F00D12043214E29
:100450003060361D3068A0435E6806F40036B6F59D
:10046000003F00D120431B4E361D3060361D3068E2
:10047000A0435E6806F48016B6F5801F00D12043C5
:10048000144E08363060361D3068A0435E6806F4AE
:100490000016B6F5001F00D120430E4E0C3630601A
:1004A000491C1029FFF420AFF8BD00004438024079
:1004B00008380140000002400004024000080240E9
:1004C000000C0240001002400014024000180240DC
:1004D000001C0240003C01400AB1816101E00B04B4
:1004E00083617047014800687047000000000020E9
:1004F00003480068034909780844014908607047C7
:10050000000000200800002010B50D48006840F4ED
:1005100000700B4908600846006840F4806008607D
:100520000846006840F480700860032000F092F8EC
:10053000002000F007F800F02BF8002010BD0000AC
:10054000003C024070B504460E4800784FF47A71C2
:10055000B1FBF0F00C490968B1FBF0F5284600F05A
:100560004CFD08B1012070BD102C07D2002221469D
:10057000501E00F031F80548046001E00120F2E768
:100580000020F0E7080000200C00002004000020FC
:1005900008B500BF002000900E48006840F480407D
:1005A0000C4908600846006800F48040009000BFD5
:1005B00000BF00BF00200090081F006840F080507E
:1005C000091F08600846006800F08050009000BFD6
:1005D00000BF08BD443802402DE9F05F80460D465B
:1005E0001646002700F036FF074639462A463346AE
:1005F00001F00700C0F1070ABAF1040F02D94FF069
:10060000040A01E0C0F1070AD14600F1040ABAF178
:10061000070F02D24FF0000A01E0A0F1030AD4460E
:100620004FF0010A0AFA09FAAAF1010A0AEA020AD3
:100630000AFA0CFA4FF0010B0BFA0CFBABF1010BB1
:100640000BEA030B4AEA0B042146404600F00AFF7E
:10065000BDE8F09F00BF00F00702064B19684FF697
:10066000FF031940044B0B4343EA0221014B19607D
:1006700000BF70470CED00E00000FA0570B50446BD
:100680000D460CB9012070BD5848006800F00F00FD
:10069000A84209D255490D700846006800F00F00C5
:1006A000A84201D00120EEE7207800F002000228E5
:1006B0001DD1207800F00400042805D14C480068C2
:1006C00040F4E0504A490860207800F0080008280B
:1006D00005D14748006840F46040454908604448F7
:1006E000006820F0F000A1680843414908602078C4
:1006F00000F00100A8B36068012807D13C48083821
:100700000068C0F34040B8B90120BCE76068022827
:1007100002D06068032807D1354808380068C0F364
:10072000406048B90120AEE7314808380068C0F39E
:10073000400008B90120A6E72D48006820F003001A
:10074000616808432A490860FFF7CCFE064609E0C5
:10075000FFF7C8FE801B41F28831884202D903208E
:1007600091E707E02248006800F00C006168B0EBF8
:10077000810FEDD11D48006800F00F00A84209D993
:100780001A490D700846006800F00F00A84201D019
:10079000012078E7207800F00400042807D11448ED
:1007A000006820F4E050E1680843114908602078AF
:1007B00000F00800082808D10D48006820F46040C7
:1007C000216940EAC1000A49086000F03DF8084983
:1007D0000968C1F30311074A515CC8400649086023
:1007E0000020FFF7AFFE00204DE70000003C024074
:1007F00008380240901E00080C00002001480068E4
:10080000704700000C00002000B5FFF7F7FF044917
:100810000968C1F38221034A515CC84000BD000051
:1008200008380240A01E000800B5FFF7E7FF0449A2
:100830000968C1F34231034A515CC84000BD000061
:1008400008380240A01E00082DE9F04700240025CA
:100850000026A1462548006800F00C0020B10428BD
:1008600005D008283AD105E0DFF8849039E0DFF8B8
:10087000849036E01D48001F006800F03F041B48CC
:10088000001F006800F4800078B11A481749091F5A
:100890000968C1F38811A0FB0170014622460023BC
:1008A0003846FFF78DFC05460EE011480F49091F39
:1008B0000968C1F38811A0FB01700146224600239C
:1008C0003846FFF77DFC05460848001F0068C0F366
:1008D0000140401C4600B5FBF6F902E0DFF810903D
:1008E00000BF00BF4846BDE8F0870000083802405E
:1008F0000024F40000127A00F8B504460CB9012077
:10090000F8BD207800F00100002874D0F948006894
:1009100000F00C0004280DD0F648006800F00C0030
:10092000082813D1F348001F006800F48000B0F5D8
:10093000800F0BD1EF4808380068C0F34040002812
:1009400059D06068002856D10120D9E700BF6068FF
:10095000B0F5803F08D1E7480838006840F480309F
:10096000E449083908601EE06068B0F5A02F0DD199
:10097000E0480838006840F48020DE490839086003
:100980000846006840F4803008600CE0D948083818
:10099000006820F48030D7490839086008460068AC
:1009A00020F48020086000BF606890B1FFF79AFDD6
:1009B000054606E0FFF796FD401B642801D9032099
:1009C0009EE7CC4808380068C0F340400028F1D0CA
:1009D00011E0FFF787FD054606E0FFF783FD401BAA
:1009E000642801D903208BE7C24808380068C0F3A7
:1009F00040400028F1D1207800F0020002285FD1A9
:100A0000BC48006800F00C0058B1BA48006800F01B
:100A10000C0008281CD1B748001F006800F48000B3
:100A2000B0B9B44808380068C0F3400020B1E068AD
:100A3000012801D0012063E7AE480838006820F0A3
:100A4000F800216940EAC100AA490839086037E086
:100A5000E06800B30120A8490860FFF743FD0546A0
:100A600006E0FFF73FFD401B022801D9032047E7BE
:100A7000A04808380068C0F340000028F1D09D4825
:100A80000838006820F0F800216940EAC10099495F
:100A90000839086014E0002097490860FFF722FD3C
:100AA000054606E0FFF71EFD401B022801D9032082
:100AB00026E7904808380068C0F340000028F1D1CC
:100AC000207800F0080008282CD16069A8B1012026
:100AD0008A490860FFF706FD054606E0FFF702FDBC
:100AE000401B022801D903200AE782486C300068C5
:100AF000C0F340000028F1D014E000207F490860D6
:100B0000FFF7F0FC054606E0FFF7ECFC401B02286F
:100B100001D90320F4E677486C300068C0F3400048
:100B20000028F1D1207800F00400042870D10026BC
:100B300070483830006800F0805090B900BF002045
:100B400000906C483830006840F080506949383176
:100B500008600846006800F08050009000BF00BFA9
:100B600001266748006800F48070B0B964480068E6
:100B700040F4807062490860FFF7B4FC054606E067
:100B8000FFF7B0FC401B022801D90320B8E65C48FF
:100B9000006800F480700028F2D000BFA06801282F
:100BA00008D154486830006840F00100514968316C
:100BB00008601DE0A06805280DD14E486830006827
:100BC00040F004004B49683108600846006840F076
:100BD000010008600CE047486830006820F0010020
:100BE0004449683108600846006820F00400086045
:100BF00000BFA068A8B1FFF775FC054609E0FFF744
:100C000071FC401B41F28831884202D9032077E60B
:100C100026E0384868300068C0F340000028EED075
:100C200013E0FFF75FFC054608E0FFF75BFC401BA5
:100C300041F28831884201D9032061E62D486830AD
:100C40000068C0F340000028EFD1012E07D12948E9
:100C50003830006820F0805026493831086000BFE5
:100C6000A069B8B32348006800F00C0008285ED0E3
:100C7000A069022846D100201F490866FFF732FC10
:100C8000054606E0FFF72EFC401B022801D9032091
:100C900036E6184808380068C0F340600028F1D1F3
:100CA000D4E907010843616A40EA81110122A06A80
:100CB000C2EB500041EA00412C20005D41EA006097
:100CC0000C49091F086001200B490866FFF70AFC60
:100CD000054607E02DE0FFF705FC401B022801D97F
:100CE00003200DE6034808380068C0F34060002880
:100CF000F1D01EE00838024000004742800E474213
:100D00000070004000200C490866FFF7EBFB054629
:100D100006E0FFF7E7FB401B022801D90320EFE5BF
:100D200006480068C0F340600028F2D101E00120CD
:100D3000E6E50020E4E500000000474200380240FC
:100D400010B504460CB9012010BD606A00B900BF9F
:100D50000021A16294F8510028B9002084F85000C5
:100D6000204600F033F8022084F851002068006823
:100D700020F0400021680860D4E901010843E168DF
:100D800008432169084361690843218B01F400711C
:100D90000843E1690843216A0843A16A08432168BE
:100DA00008600421A06901EA1040616A08432168D3
:100DB00048602068C06920F400602168C861002094
:100DC0006065012084F851000020BDE710B586B0B1
:100DD0000446142101A8FFF72BFA1B49206888421A
:100DE00030D100BF002000901848006840F4004057
:100DF000164908600846006800F40040009000BFF3
:100E000000BF00BF0020009010481038006840F07C
:100E100004000E49103908600846006800F004001C
:100E2000009000BF00BF4FF4A0500190022002903C
:100E300000200390032004900620059001A9044897
:100E4000FFF74AFA06B010BD003C004040380240AF
:100E5000000802402DE9F84304460D4617461E4699
:100E60004FF00008C14600BF94F85000012802D19D
:100E70000220BDE8F883012084F8500000BFFFF78E
:100E800031FB804694F85100012802D04FF002094E
:100E9000A9E005B117B94FF00109A4E0032084F8D7
:100EA0005100002060652563A786E786A063A087C0
:100EB000E08760642064A068B0F5004F05D1206829
:100EC000006840F48040216808602068006800F0F5
:100ED0004000402805D02068006840F040002168AC
:100EE0000860E068B0F5006F2AD1606810B1E08E4C
:100EF000012806D128882168C860AD1CE08E401EFC
:100F0000E08619E02068806800F00200022807D11E
:100F100028882168C860AD1CE08E401EE0860BE08A
:100F20003EB1701C40B1FFF7DDFAA0EB0800B04203
:100F300002D34FF0030956E0E08E0028E2D129E009
:100F4000606810B1E08E012806D128782168087306
:100F50006D1CE08E401EE08619E02068806800F07D
:100F60000200022807D12878216808736D1CE08EE2
:100F7000401EE0860BE03EB1701C40B1FFF7B2FAB4
:100F8000A0EB0800B04202D34FF003092BE0E08E43
:100F90000028E2D13346012202212046CDF800800C
:100FA00000F089FA10B14FF003091CE042463146C7
:100FB000204600F06CFA20B14FF001092020606556
:100FC00011E0A06850B900BF002000902068C06800
:100FD000009020688068009000BF00BF606D08B17D
:100FE0004FF0010900BF012084F8510000BF00202C
:100FF00084F8500000BF48463BE770B504462546DC
:10100000681EB0F1807F01D301200FE0681E4FF011
:10101000E02148610F214FF0FF3000F023FA00205B
:101020004FF0E021886107200861002070BD10B5F5
:1010300004460CB9012010BD94F8390028B90020ED
:1010400084F83800204600F00DF8022084F83900BA
:10105000211D206800F084FC012084F83900002064
:10106000E9E7000008B50A4A016891420FD100BFC4
:10107000002100910749096841F48071054A116017
:101080001146096801F48071009100BF00BF08BDDE
:10109000002000404038024010B504460CB9012041
:1010A00010BDA06900B100E000BF94F8390028B974
:1010B000002084F83800204600F028F8242084F826
:1010C00039002068C06820F400502168C8602046BC
:1010D00000F0B8FC2068006920F4904021680861A5
:1010E0002068406920F02A00216848612068C068B3
:1010F00040F400502168C8600020E063202084F89C
:10110000390084F83A000020CAE7000010B586B024
:101110000446142101A8FFF78BF81B492068884278
:1011200030D100BF002000901848006840F0100047
:10113000164908600846006800F01000009000BFE3
:1011400000BF00BF0020009010481438006840F035
:1011500001000E49143908600846006800F00100DB
:10116000009000BF00BF4FF4C060019002200290C9
:1011700001200390032004900720059001A9044852
:10118000FFF7AAF806B010BD001001404438024035
:101190000000024000BFFEE72DE9FF4F85B0814609
:1011A0008A460020039083460798A0EB090508981B
:1011B000A0EB0A06CDF80890CDF804A0002D01DDC3
:1011C000012705E00DB9002702E04FF0FF376D421F
:1011D000002E02DD4FF0010806E016B94FF00008BE
:1011E00002E04FF0FF387642B54201DD2C4600E0C8
:1011F0003446002004901EE0019A91B2029A90B207
:10120000129A00F01FF8039828440390B3440398FF
:10121000A04205DD0398001B039002983844029019
:10122000A34504DDABEB040B019840440190049806
:10123000401C80B20490611C04988842DCDD09B037
:10124000BDE8F08F70B505460E4614463146284677
:1012500000F006F800F01AF8204600F0C5FA70BD5C
:1012600070B504460D462A2000F080FA200A00F0EE
:101270009DFAE0B200F09AFA2B2000F077FA280AE3
:1012800000F094FAE8B200F091FA70BD10B52C208D
:1012900000F06CFA10BD000000B587B0142102A860
:1012A000FEF7C6FF00BF002001903848006840F0FC
:1012B0008000364908600846006800F08000019010
:1012C00000BF00BF00BF002001900846006840F04A
:1012D000040008600846006800F00400019000BFA8
:1012E00000BF00BF002001900846006840F00100E8
:1012F00008600846006800F00100019000BF00BFD0
:1013000000BF002001900846006840F00800086017
:101310000846006800F00800019000BF00BF0022EE
:101320004FF440711A48FFF7D7F80122D10319484A
:10133000FFF7D2F8002280211748FFF7CDF84FF4CD
:10134000407002900120039000200490059002A9B3
:101350000F48FEF7C1FF4FF40040029001200390B8
:10136000002004900220059002A90A48FEF7B4FF6D
:10137000802002900120039000200490059002A993
:101380000548FEF7A9FF07B000BD00003038024055
:101390000008024000000240000C024010B50F4857
:1013A0000F4908604FF4827048604FF400410C48C8
:1013B00081600021C160016141614FF40071816170
:1013C0000021C1610162416281620A21C162FFF7AD
:1013D000B7FC08B1FEF76BFF10BD0000003C0040F9
:1013E0001400002010B509480949086053204860DE
:1013F0000021074881604EF66021C1600021016133
:10140000FFF715FE08B1FEF752FF10BD00200040A7
:101410006C00002010B50B480B4908604FF4E13018
:101420004860002108488160C16001610C21416170
:1014300000218161C161FFF72FFE08B1FEF737FF80
:1014400010BD000000100140A800002000BFFEE712
:101450007047000002480068C0F302207047000097
:101460000CED00E010B5002807DA0A07140E054A53
:1014700000F00F031B1FD45403E00A07130E024AA7
:10148000135410BD18ED00E000E400E07047F8B51B
:1014900004460D4616462B46002280212046009623
:1014A00000F009F828B1606D40F02000606503206D
:1014B000F8BD0020FCE72DE9F04104460E46174632
:1014C0001D46DDF818803FE0681CE0B32DB1FFF742
:1014D00009F8A0EB0800A84236D32068406820F045
:1014E000E000216848606068B0F5827F0DD1A06897
:1014F000B0F5004F03D0A068B0F5806F05D120682B
:10150000006820F0400021680860A06AB0F5005F24
:101510000ED100BF206800684DF6FF7108402168B9
:1015200008602068006840F400502168086000BF2F
:10153000012084F8510000BF002084F8500000BF53
:101540000320BDE8F081FFE7206880683040B042AA
:1015500001D1012000E00020B842B5D10020F0E721
:1015600070B5054600210846FFF77AFEFFF78EFEAC
:10157000002403E0284600F037F9641CB4F5614FFD
:10158000F8D370BD10B500224FF480717648FEF795
:10159000A3FF3220FEF78CFE012211027248FEF7F3
:1015A0009BFF7820FEF784FE112000F0DFF8782002
:1015B000FEF77EFE362000F0D9F8002000F0F6F8A5
:1015C0003A2000F0D3F8052000F0F0F8B22000F047
:1015D000CDF80C2000F0EAF80C2000F0E7F800202D
:1015E00000F0E4F8332000F0E1F8332000F0DEF8FA
:1015F000B72000F0BBF8352000F0D8F8BB2000F091
:10160000B5F81C2000F0D2F8C02000F0AFF82C2074
:1016100000F0CCF8C22000F0A9F8012000F0C6F8D4
:10162000C32000F0A3F80B2000F0C0F8C42000F0A5
:101630009DF8202000F0BAF8C62000F097F80F209F
:1016400000F0B4F8D02000F091F8A42000F0AEF83B
:10165000A12000F0ABF8E02000F088F8D02000F0E6
:10166000A5F8062000F0A2F80B2000F09FF80A2051
:1016700000F09CF8092000F099F8062000F096F898
:101680002F2000F093F8442000F090F8452000F05F
:101690008DF8182000F08AF8142000F087F8142044
:1016A00000F084F8272000F081F82D2000F07EF86B
:1016B000E12000F05BF8D02000F078F8062000F080
:1016C00075F80B2000F072F80A2000F06FF809207E
:1016D00000F06CF8052000F069F82E2000F066F8A4
:1016E000432000F063F8452000F060F8182000F077
:1016F0005DF8142000F05AF8142000F057F8272065
:1017000000F054F82D2000F051F8292000F02EF8B8
:101710007820FEF7CDFD212000F028F82A2000F0E7
:1017200025F8002000F042F8002000F03FF80020EB
:1017300000F03CF8F02000F039F82B2000F016F80B
:10174000002000F033F8002000F030F8002000F016
:101750002DF8F02000F02AF81420FEF7A9FD1F2034
:10176000FFF7FEFE10BD00000008024001B5002298
:101770004FF400710A48FEF7AFFE00224FF400411B
:101780000848FEF7A9FE0523012269460648FFF72F
:1017900061FB0122D1030348FEF79EFE08BD000055
:1017A00000080240000002401400002001B50122A0
:1017B00051020A48FEF790FE00224FF4004108480B
:1017C000FEF78AFE0523012269460648FFF742FB21
:1017D0000122D1030248FEF77FFE08BD0008024047
:1017E00000000240140000201CB5044620120190A5
:1017F000E0B20090012251020D48FEF76DFE00227A
:101800004FF400410B48FEF767FE0523012201A9B2
:101810000948FFF71FFB0523012269460648FFF729
:1018200019FB0122D1030348FEF756FE1CBD000040
:10183000000802400000024014000020704710B56C
:10184000FEF756FE10BD000000B593B0302107A88A
:10185000FEF7EEFC142102A8FEF7EAFC00BF002010
:1018600001902448006840F08050224908600846F2
:10187000006800F08050019000BF00BF00BF002052
:1018800001901D48006840F480401B4908600846EC
:10189000006800F48040019000BF00BF0120079065
:1018A0000004089002200D9041050E9104210F9133
:1018B000A8211091022111910421129107A8FFF78C
:1018C0001BF808B1FEF7F3FC0F20029002200390F2
:1018D000002004904FF4A05005904FF480500690E3
:1018E000052102A8FEF7CAFE08B1FEF7E0FC13B01E
:1018F00000BD0000403802400070004014480068FD
:1019000040F47000124908601248006840F001007D
:101910001049086000200F49083108600D48006830
:101920000D4908400B4908600C48091D0860081F54
:10193000006820F48020091F0860002005490C3150
:1019400008604FF00060024980390860704700006D
:1019500088ED00E000380240FFFFF6FE1030002462
:10196000002202682C4B98420ED0B0F1804F0BD071
:101970002A4B984208D02A4B984205D0294B9842CE
:1019800002D0294B984201D1012300E000231BB172
:1019900022F070024B681A431F4B984220D0B0F1DE
:1019A000804F1DD01D4B98421AD01D4B984217D026
:1019B0001C4B984214D01C4B984211D01B4B9842A0
:1019C0000ED01B4B98420BD01A4B984208D01A4BA2
:1019D000984205D0194B984202D0194B984201D138
:1019E000012300E000231BB122F44072CB681A43AC
:1019F00002608B68C3620B688362074B984202D017
:101A0000094B984201D1012300E000230BB10B697F
:101A1000036301234361704700000140000400405C
:101A200000080040000C004000040140004001405C
:101A3000004401400048014000180040001C0040E4
:101A4000002000402DE9F04104460025206805698A
:101A500025F44055E0680543206805612068C568A5
:101A600049F20C6085432169A06808436169084315
:101A7000E169084305432068C5602068456925F48D
:101A80004075A069054320684561E069B0F5004FE5
:101A90007ED1C4492068884203D0C3492068884267
:101AA0005DD1FEF7C1FE00EBC00101EB00106168E3
:101AB0004900B0FBF1F06421B0FBF1F00601FEF744
:101AC000B3FE00EBC00101EB001061684900B0FB00
:101AD000F1F7FEF7A9FE00EBC00101EB0010616811
:101AE0004900B0FBF1F06421B0FBF1F000EBC00164
:101AF00001EB0010A7EB8000322101EBC000642154
:101B0000B0FBF1F000F0F80006EB4006FEF78CFEAB
:101B100000EBC00101EB001061684900B0FBF1F778
:101B2000FEF782FE00EBC00101EB00106168490086
:101B3000B0FBF1F06421B0FBF1F000EBC00101EB70
:101B40000010A7EB8000322101EBC0006421B0FB44
:101B5000F1F000F0070030442168886020E1FEF7D2
:101B600053FE00EBC00101EB001061684900B0FBBF
:101B7000F1F06421B0FBF1F00601FEF745FE00EB49
:101B8000C00101EB001061684900B0FBF1F700E013
:101B900045E0FEF739FE00EBC00101EB0010616883
:101BA0004900B0FBF1F06421B0FBF1F000EBC001A3
:101BB00001EB0010A7EB8000322101EBC000642193
:101BC000B0FBF1F000F0F80006EB4006FEF71CFE5B
:101BD00000EBC00101EB001061684900B0FBF1F7B8
:101BE000FEF712FE00EBC00101EB00106168490036
:101BF000B0FBF1F06421B0FBF1F000EBC00101EBB0
:101C00000010A7EB8000322101EBC0006421B0FB83
:101C1000F1F000F00700304421688860C0E06149BD
:101C20002068884203D06049206888425CD1FEF772
:101C3000FBFD00EBC00101EB001061688900B0FB07
:101C4000F1F6FEF7F1FD00EBC00101EB0010616859
:101C50008900B0FBF1F06421B0FBF1F000EBC001B2
:101C600001EB0010A6EB8000322101EB0010642193
:101C7000B0FBF1F000F0F006FEF7D6FD00EBC0017E
:101C800001EB001061688900B0FBF1F06421B0FB4A
:101C9000F1F006EB0016FEF7C7FD00EBC00101EB0B
:101CA000001061688900B0FBF1F7FEF7BDFD00EBA5
:101CB000C00101EB001061688900B0FBF1F0642104
:101CC000B0FBF1F000EBC00101EB0010A7EB8000CE
:101CD000322101EB00106421B0FBF1F000F00F00A5
:101CE0003044216888605BE0FEF78EFD00EBC001A8
:101CF00001EB001061688900B0FBF1F6FEF784FD8E
:101D000000EBC00101EB001061688900B0FBF1F04D
:101D10006421B0FBF1F000EBC00101EB0010A6EB79
:101D20008000322101EB00106421B0FBF1F000F0E3
:101D3000F006FEF769FD00EBC00101EB00106168E1
:101D40008900B0FBF1F06421B0FBF1F006EB001666
:101D5000FEF75AFD00EBC00101EB0010616889003D
:101D6000B0FBF1F7FEF750FD00EBC00101EB0010F6
:101D700061688900B0FBF1F06421B0FBF1F000EB89
:101D8000C00101EB0010A7EB8000322101EB001035
:101D90006421B0FBF1F000F00F003044216888604E
:101DA000BDE8F081001001400014014000BFFEE7D3
:101DB000014A024900F013B8011E0008100000207B
:101DC00002E008C8121F08C1002AFAD17047704704
:101DD000002001E001C1121F002AFBD170472DE94C
:101DE000F04116460F460446002503E03946B04749
:101DF000641C6D1C20780028F8D12846BDE8F081CD
:101E0000C2B2054B5A6000BF034A126802F080025A
:101E1000002AF9D0704700000010014008B5FEF715
:101E200073FBFFF711FDFFF737FAFFF7F3FAFFF740
:101E3000D9FAFFF7B3FA14A0FFF7BAFFFFF7A2FB36
:101E400021E000241DE044B91F20EF231A46194663
:101E500000900020FFF7A0F908E01F200090601E0E
:101E600083B281B2EF220020FFF796F94FF6FF70A0
:101E70002346EF22214600900020FFF78DF9601CD9
:101E800084B2F02CDFDBDCE76F6B21210D0A000050
:101E9000000000000000000001020304060708091A
:101EA0000000000001020304C81E0008000000201A
:101EB00014000000C01D0008DC1E000814000020F3
:101EC000D4040000D01D0008000000001000000035
:0C1ED000010000000024F40000000000ED
:040000050800018965
:00000001FF
